:020000000E28C8
:10000800FE00030EF7000408F8000A08F9007F084C
:10001800FA00E92A0F288D24DF008313203084009A
:1000280051307E24FB01FC01FD0183012F2983123D
:100038000313D200093083120313D100D10B2228F5
:10004800000083120313061E2A282B282D28D2010C
:10005800D20A061A302831283228D201061A352841
:10006800362832288624093083120313D100D10B95
:100078003B28000083120313061E432844284B28FC
:100088005208D1005107B1003108013ED200061ACA
:100098004E284F2855285208D1005107B100310881
:1000A800D200061A58285928552886240930831260
:1000B8000313D100D10B5E28000083120313061E20
:1000C800662867286E285208D1005107B200320806
:1000D800013ED200061A7128722878285208D100E9
:1000E8005107B2003208D200061A7B287C287828EB
:1000F8008624093083120313D100D10B8128000014
:1001080083120313061E89288A2891285208D100D1
:100118005107B3003308013ED200061A94289528E7
:100128009B285208D1005107B3003308D200061AA1
:100138009E289F289B288624093083120313D10008
:10014800D10BA428000083120313061EAC28AD2887
:10015800B4285208D1005107B4003408013ED20037
:10016800061AB728B828BE285208D1005107B4008B
:100178003408D200061AC128C228BE2886240930AD
:1001880083120313D100D10BC72800008312031375
:10019800061ECF28D028D7285208D1005107B5000D
:1001A8003508013ED200061ADA28DB28E128520871
:1001B800D1005107B5003508D200061AE428E52811
:1001C800E1288624093083120313D100D10BEA28D1
:1001D800000083120313061EF228F328FA28520897
:1001E800D1005107FB007B08013ED200061AFD280A
:1001F800FE2804295208D1005107FB007B08D200D1
:10020800061A0729082904298624093083120313AA
:10021800D100D10B0D29000083120313061E1529E6
:1002280016291D295208D1005107FC007C08013EFF
:10023800D200061A2029212927295208D10051075E
:10024800FC007C08D200061A2A292B2927295208E3
:10025800FD008624080083160313850112308600EA
:10026800831203138501860107309F008316031349
:100278008111011081100111803083120313D10004
:100288002530D200EF238312031385170513861236
:100298008611033083120313DE008A30DD005530E7
:1002A800DC00DC0B5529DD0B5529DE0B5529000038
:1002B80083120313851305178612861103308312E0
:1002C8000313DE008A30DD005530DC00DC0B6A29C0
:1002D800DD0B6A29DE0B6A290000831203138513DC
:1002E800051386168611033083120313DE008A3045
:1002F800DD005530DC00DC0B7F29DD0B7F29DE0BB0
:100308007F290000831203138513051386128615AF
:10031800033083120313DE008A30DD005530DC0021
:10032800DC0B9429DD0B9429DE0B94290000831241
:1003380003138513051386128611033083120313E2
:10034800DE008A30DD005530DC00DC0BA929DD0B2E
:10035800A929DE0BA929000083120313D001D00AB2
:10036800A301A30AA201A20ACB23831203133A080A
:100378000222831203132408652483120313250819
:1003880065242E3065248312031337080222831252
:1003980003132608652483120313270865243130C4
:1003A8000C2483120313390802228312031324082E
:1003B800652483120313250865242E3065248312CF
:1003C80003133808022283120313260865248312B4
:1003D80003132708652431300C240B3083120313D0
:1003E800DE002630DD005D30DC00DC0BF929DD0B9A
:1003F800F929DE0BF9290000B8290E288312031306
:10040800DB005B08AD005B08AE005B08A8000A30A3
:10041800D1000030D2002D08D900DA015908D300E4
:100428005A08D4008022831203135108AD002D0806
:10043800A4003030FF007F08A4070A30D100003044
:10044800D2002D08D900DA015908D3005A08D4007F
:100458008022831203135108AD002D08A600303006
:10046800FF007F08A6070A30280203183C2A3D2A05
:10047800492A2E08A5003030FF007F08A5072E085E
:10048800A7003030FF007F08A7070A302802031CA6
:100498004E2A4F2A7F2A0A30D10050083F2483125F
:1004A8000313D9005908AE020A302E0203185D2A38
:1004B8005E2A6D2A2203031D622A632A6D2A2E08EA
:1004C800A5003030FF007F08A507A301A30AD001CB
:1004D800D00A0A302E02031C722A732A7F2A2303A9
:1004E800031D772A782A7F2A0130FF007F08D0076A
:1004F800A301A201A20A080083120313D601D21F86
:10050800862A872A8E2AD109D209D10A0319D20A42
:10051800D601D60AD41F912A922A9B2AD309D40934
:10052800D30A0319D40A0130FF007F08D606D70181
:10053800D801510852040319A22AA32ADA2AD5019C
:10054800D50AB12A01300310D10DD20DFF3E031D8B
:10055800A72A0130FF007F08D507D21FB42AB52A81
:10056800A62A01300310D70DD80DFF3E031DB62A69
:1005780052085402031DC22A51085302031CC52AFB
:10058800C62ACD2A5108D3025208031CD403D40228
:10059800571401300310D20CD10CFF3E031DCE2A94
:1005A8000130D502031DD92ADA2AB52A56080319BB
:1005B800DE2ADF2AE42AD709D809D70A0319D80A74
:1005C8005808D2005708D1000800831203138C1E64
:1005D800EE2AEF2A2B2B1430F0000030F1003C30CB
:1005E8009F232A30F0003C30722370087104031DE9
:1005F800FE2AFF2A032B83120313851705132230C3
:10060800F0003C30722370087104031D0C2B0D2B75
:10061800112B83120313851305171230F0003C3099
:10062800722370087104031D1A2B1B2B1E2B8312B7
:10063800031386160130F0003C30722370087104F1
:10064800031D272B282B2B2B8312031386128312AF
:1006580003138C127A08FF0079088A00780884004E
:10066800770E8300FE0E7E0E090003308A00040810
:10067800840A82070034533441344C3449344434B6
:1006880041345F3442344C3445345F3431345F3460
:100698004F34463446340034533441344C344934AE
:1006A800443441345F3442344C3445345F3431345B
:1006B8005F344F344E34003442344C3445345F3464
:1006C8004E344F344B34003442344C3445345F3468
:1006D8004F344B3400340D340A340034F4007C2B8E
:1006E8000130FF007F08F4070130FF007F08F007A2
:1006F800700884003923F20074088400831300080A
:100708007206031D882B892B902B7408840000081F
:10071800031D8F2B902B742B700884003923F20053
:10072800740884000008F30072087302F000F101F5
:10073800031CF1030800F400F501F6015624F30048
:1007480075087407F2007208840073088313800028
:100758000130F5070318F60A0030F607710876022B
:10076800031DB82B70087502031CBB2BBC2BBD2BBB
:10077800C32B0A307306031DC22BC32BA22B75088B
:100788007407F2007208FE3E84008001080083129C
:100798000313BA01B701B901B801262473248624CA
:1007A800831203133A081B207D0883120313BA002F
:1007B80037081B207D0883120313B70039081B2054
:1007C8007D0883120313B90038081B207D088312A3
:1007D8000313B80008008030831203135106253034
:1007E80003195206031DF92BFA2B0B2C8B170B1729
:1007F800831603138C16861406119816181583127F
:100808000313981718161930831603139900080054
:1008180083120313D300D2011C2C520853078400FF
:10082800392365240130FF007F0883120313D207A0
:100838005208530784003923003A031D242C252C21
:10084800112C0800831603130612831203130612D1
:10085800213083120313D2007630D100D10B322C11
:10086800D20B322C8316031306168312061A3D2C5C
:100878003E2C392C080083120313D300D201531CD9
:10088800462C472C4B2C5108FF007F08D207031039
:10089800D10D0310D30C5308031D532C542C432C97
:1008A80052080800831203138C1E5B2C5C2C562CF8
:1008B800981C5F2C602C622C181218168C121A08BF
:1008C800080083120313D10083160313981C6D2CA0
:1008D8006E2C682C831203135108990008008312A8
:1008E8000313061E782C792C732C061A7C2C7D2C6D
:1008F800792C080064008001840A04060319003476
:1009080004067F2C83120313061E8B2C8C2C862C3A
:04091800080054344B
:08400000FF3FFF3FFF3FFF3FC0
:02400E00703F01
:00000001FF
